:020000040800F2
:1000000000500020550000089101000893010008ED
:1000100000000000000000000000000000000000E0
:1000200000000000000000000000000000000000D0
:100030000000000000000000000000009501000822
:1000400000000000000000000000000000000000B0
:10005000000000005748016841F4803101600168E8
:1000600011F40031FBD0016841F4003101605248C5
:100070004FF0320101605148016841F4EA1141F446
:10008000806101604B48016841F080710160016846
:1000900011F00071FBD04948016841F4EA1141F4C4
:1000A000806141F002010160454844F214010160A1
:1000B0004448016841F0300141F0800121F04001E5
:1000C0000160414840F271210160404842F20C0158
:1000D00001603F4842F2283101603E484FF0030181
:1000E00001603D4880F309884FF0030080F31488D5
:1000F0004FF000013948016039480160394801601A
:1001000039480160394801603448016811F0020F34
:10011000FAD037484FF0000101604FF0480000F07E
:100120002DF84FF0650000F029F84FF06C0000F05A
:1001300025F84FF06C0000F021F84FF06F0000F050
:100140001DF84FF0200000F019F84FF0570000F0B4
:1001500015F84FF06F0000F011F84FF0720000F04A
:100160000DF84FF06C0000F009F84FF0640000F05B
:1001700005F84FF00A0000F001F8C5E70FB41D4A7A
:1001800010601D4A126812F0400FFAD00FBC704781
:10019000704770471548016801F101010160B1F530
:1001A000FA7F06D34FF00001016011484FF00101C2
:1001B000016070470010024000200240041002401D
:1001C0001810024004080140083801400C38014072
:1001D00014E000E010E000E0004E002000020020EB
:1001E00004020020080200200C020020100200205F
:0C01F000044000220438014000380140A7
:04000005080000559A
:00000001FF
