:020000040800F2
:10000000600600206D0100087501000877010008F6
:10001000790100087B0100087D0100080000000054
:100020000000000000000000000000007F01000848
:10003000810100080000000083010008850100081C
:100040008701000887010008870100088701000870
:100050008701000887010008870100088701000860
:100060008701000887010008870100088701000850
:100070008701000887010008870100088701000840
:100080008701000887010008870100088701000830
:100090008701000887010008870100088701000820
:1000A0008701000887010008870100088701000810
:1000B0008701000887010008870100088701000800
:1000C00087010008870100088701000887010008F0
:1000D00087010008870100088701000887010008E0
:1000E00087010008870100088701000800F002F876
:1000F00000F02CF80AA090E8000C82448344AAF196
:100100000107DA4501D100F021F8AFF2090EBAE893
:100110000F0013F0010F18BFFB1A43F0010318473B
:100120004803000058030000002300240025002697
:10013000103A28BF78C1FBD8520728BF30C148BF4A
:100140000B6070471FB51FBD10B510BD00F031F832
:100150001146FFF7F7FF00F031F900F04FF803B454
:10016000FFF7F2FF03BC00F057F800000948804792
:1001700009480047FEE7FEE7FEE7FEE7FEE7FEE789
:10018000FEE7FEE7FEE7FEE704480549054A064BA1
:100190007047000065030008ED00000860000020C3
:1001A0006006002060020020600200207047704757
:1001B0007047754600F02CF8AE4605006946534678
:1001C00020F00700854618B020B5FFF7DDFFBDE839
:1001D00020404FF000064FF000074FF000084FF0AE
:1001E000000BAC46ACE8C009ACE8C009ACE8C009FB
:1001F000ACE8C00921F007018D46704710B50446F0
:10020000AFF300802046BDE81040FFF7A8BF000014
:10021000004870470000002001491820ABBEFEE7EF
:10022000260002007047000040F60C00C4F20100F6
:10023000002101604FF40071C0F800144FF4004138
:10024000C0F800187047000040F60C00C4F201002E
:10025000802101600021C0F800144FF40041C0F873
:100260000018704740F60C00C4F2010080210160C4
:100270004FF40071C0F800140021C0F80018704756
:1002800081B000900098411E009120B10098411E5D
:1002900000280091FAD101B07047000080B500F04D
:1002A00001F880BD82B041F204000021C4F20200D6
:1002B0000191009150F8041C41F4803140F8041C75
:1002C00050F8041C01F400310091019901310191B1
:1002D000009919B90199B1F5A06FF1D150F8041C3A
:1002E000890354BF0021012100910099012936D1D1
:1002F00042F20001C4F202010A6842F010020A60F0
:100300000A6822F003020A600A6842F002020A60E8
:100310000168016001680160016841F48061016069
:10032000016821F47C110160016841F4E811016069
:1003300050F8041C41F0807140F8041C50F8041C73
:100340008901FBD5016821F003010160016841F0DA
:1003500002010160016801F00C010829FAD102B024
:100360007047000080B541F20000C4F2020001684D
:10037000002241F0010101604168CFF6FF02114007
:10038000416001684FF6FF72CFF6F66211400160DE
:10039000016821F480210160416821F4FE0141607F
:1003A0004FF41F018160FFF779FF4EF60850CEF23F
:1003B00000004FF00061016080BD000041F21800B4
:1003C000C4F20200016849F2806441F00401016056
:1003D0000168C0F2980441F008010160016841F031
:1003E0001001016040F60000C4F20100016821F034
:1003F00070410160016841F000510160C16841F045
:100400008001C16040F60440C4F20100016821F09F
:10041000F0010160016841F020010160816841F450
:1004200000718160D0F8001421F07041C0F8001410
:10043000D0F8001441F04051C0F80014D0F808146E
:1004400041F40041C0F80814FFF7EEFE2046FFF724
:1004500017FFFFF7F9FE2046FFF712FFFFF702FF35
:100460002046FFF70DFFEFE77804000800000020AA
:080470006006000028010008ED
:04000005080000ED02
:00000001FF
