:020000040800F2
:10000000600400208900000800F002F800F02CF8DD
:100010000AA090E8000C82448344AAF10107DA4563
:1000200001D100F021F8AFF2090EBAE80F0013F089
:10003000010F18BFFB1A43F0010318470803000023
:10004000180300000023002400250026103A28BFD2
:1000500078C1FBD8520728BF30C148BF0B6070473A
:100060001FB51FBD10B510BD00F0A0F81146FFF779
:10007000F7FF00F0FBF800F0BEF803B4FFF7F2FF63
:1000800003BC00F0DFF8000000F019F800F060F8A1
:1000900000F06AF800F062F800F066F800F040F84E
:1000A00000F062F800F042F800F05EF800F044F86A
:1000B00000F05AF800F046F800F056F8E6E703B50D
:1000C000334840F01C0032490860324800F070406C
:1000D000304908602F4840F000502E4908604FF02A
:1000E00080002D4908602D4800F0F0002B49086081
:1000F0002A4840F02000294908604FF40070284940
:100100000860284800F0704026490860254840F003
:100110000050244908604FF400402349086003BDA3
:1001200003B54FF000001C49086003BD03B54FF054
:1001300080001949086003BD03B54FF0000018495D
:10014000086003BD03B54FF400701549086003BD96
:1001500003B54FF000001449086003BD03B54FF428
:1001600000401149086003BD03B5002000210022B2
:10017000401CB0F5A57FFBD30020491CB1F5A57F3D
:10018000F6D300200021521C0F2AF1D303BD00BF7B
:1001900018100240000801400C080140040C014006
:1001A0000C0C0140041001400C100140754600F099
:1001B0002BF8AE4605006946534620F007008546F9
:1001C00018B020B500F024F8BDE820404FF000063C
:1001D0004FF000074FF000084FF0000BAC46ACE8C2
:1001E000C009ACE8C009ACE8C009ACE8C00921F01E
:1001F00007018D46704710B50446AFF300802046D6
:10020000BDE81040FFF739BF0048704700000020EC
:1002100000B585B0694601AA0A604FF01600ABBE72
:100220000198002802BF0548C01D20F0070003996F
:10023000029A049B05B000BD090000000000000008
:100240007047000001491820ABBEFEE726000200FF
:1002500081B000900098411E009120B10098411E8D
:1002600000280091FAD101B07047000041F2180057
:10027000C4F20200016840F6000541F0040101608B
:100280000168C4F2010541F008010160016840F60F
:10029000044641F0100101602868C4F2010620F014
:1002A00070402860286844F2402440F000502860E4
:1002B000E868C0F20F0440F08000E8603068002772
:1002C00020F0F000306030684FF0800840F02000EF
:1002D0003060B0684FF4007940F40070B060D6F838
:1002E00000044FF4004A20F07040C6F80004D6F82D
:1002F000000440F04050C6F80004D6F8080440F46A
:100300000040C6F8080400BF2046EF60FFF7A0FFDA
:100310002046C5F80C80FFF79BFF2046B760FFF72B
:1003200097FF2046C6F80890FFF792FF2046C6F8D0
:100330000874FFF78DFF2046C6F808A4FFF788FF72
:10034000E2E7000054030008000000206004000001
:04035000440000085D
:0400000500000000F7
:00000001FF
